:100000001DC052C02BC02AC029C029C027C026C08D
:1000100025C024C023C022C021C020C01FC005A805
:100020004CCDB2D44EB93836A9020C50B99186885D
:10003000083CA6AAAA2ABE000000803F11241FBEC9
:10004000CFE5D2E0DEBFCDBF20E0A0E6B0E001C04A
:100050001D92AC36B207E1F7E2D037C5D1CF1F927F
:100060000F920FB60F9211248F939F93AF93BF936C
:100070008091620090916300A0916400B09165004E
:100080000196A11DB11D8093620090936300A0931F
:100090006400B0936500BF91AF919F918F910F90D5
:1000A0000FBE0F901F9018951F920F920FB60F92D0
:1000B00011248F938BB78F7B8BBF8F910F900FBEC7
:1000C0000F901F901895109262001092630010928A
:1000D00064001092650083B7816083BF89B7826036
:1000E00089BF789408958091620090916300A091F7
:1000F0006400B091650022B7BA2FA92F982F8827E6
:10010000BC01CD01620F711D811D911D0895EBDFB2
:1001100028EE33E040E050E0C2D1CA01B9010895B1
:1001200080B7816680BF8CB580668CBD8CE78EBD44
:1001300089EF8DBD0895B99A0895B9980895BC9A2C
:100140000895BC9808958BBD08950F931F93CF9386
:10015000C6B3C47080916A00C81761F0D8DF60939D
:100160006600709367008093680090936900C09365
:100170006A0028C0CCDF00916600109167002091D2
:10018000680030916900DC01CB01801B910BA20B50
:10019000B30B0A97A105B105A8F080916B00C111BE
:1001A00007C08150823010F482E00AC081E008C0AC
:1001B000833011F0811103C010926B0003C083E003
:1001C00080936B00CF911F910F9108951092610061
:1001D00010926000B4DF88E28BBD08958AEF8BBD7A
:1001E000AADF8BE594E40197F1F700C000001BBC87
:1001F000A8DFA3DF8BB780648BBF85B7806285BF24
:10020000889585B78F7D85BFE1DF82E080936B00A5
:1002100080916B00882311F098DFFACF089580DF7A
:1002200052DFC29A10926600109267001092680026
:100230001092690010926A0085B7877E806185BF41
:10024000C5DFCCDF1AEF84EC882E89E0982EA12C34
:10025000B12C90E8292E312C8091600081114EC084
:1002600056DF6B017C0171DF80916B00813001F5FD
:100270001BBD61DF83ED90E30197F1F700C0000043
:1002800098E29BBD5ADF809161008F5F809361008F
:1002900080916B00833011F058DFFACF38DF6B01AB
:1002A0007C0180916000811103C021E020936000F7
:1002B0008091600081110EC02ADFDC01CB018C1916
:1002C0009D09AE09BF0981319742A105B10510F022
:1002D00085DF14C080916000813029F618DFDC01D1
:1002E000CB018C199D09AE09BF09893B9B40A10533
:1002F000B10508F4B8CF82E080936000809160007F
:10030000823009F08AC06091610070E080E090E086
:1003100020E335E740E050E0E6D069017A01F7DEFE
:100320002B013C01C1E000E010DF80916B008330C5
:1003300011F454DF72C0EBDEDC01CB0184199509A6
:10034000A609B709C816D906EA06FB0620F493E009
:100350009093600062C0DBDE641975098609970915
:10036000A50194019CD02FE530E040E050E0BBD0E7
:10037000B901CA01A501940192D0D22F201710F41F
:1003800021E0C2276D2F70E080E090E0CC2329F1BE
:1003900026D220E030E04EEB52E48DD12BED3FE051
:1003A00049EC5FE3E3D22BED3FE049E450E41CD19C
:1003B0007FD120E030E040E85FE316D120E030E07C
:1003C0004EEB52E4D3D220E030E040EA50E40CD1CE
:1003D000DAD16BBDC1E00D2FA7CF01D220E030E014
:1003E0004EEB52E468D12BED3FE049EC5FE3BED227
:1003F00024EE3BEC46E950E4F7D05AD120E030E05F
:100400004EEB52E4B3D29B01AC0160E070E088ECAB
:1004100092E4E9D0B8D16BBDDECF8091600083302B
:1004200009F01ACF74DE6B017C0126E4C21AD108F0
:10043000E108F108D3E0C0E088DE80916B008330F2
:1004400011F4CCDE09CF63DEDC01CB018C199D09F0
:10045000AE09BF0987349105A105B10568F3C10153
:100460000C2E02C0959587950A94E2F780FF03C091
:10047000D15039F3C0E085E090E00C2E02C0959594
:1004800087950A94E2F780FF03C01BBD54DE02C0CB
:100490001BBC53DECF5F3BDE6B017C01CDCFA1E205
:1004A0001A2EAA1BBB1BFD010DC0AA1FBB1FEE1FEE
:1004B000FF1FA217B307E407F50720F0A21BB30B39
:1004C000E40BF50B661F771F881F991F1A9469F7B5
:1004D00060957095809590959B01AC01BD01CF0111
:1004E000089568940013E894A0E0B0E0E9E7F2E032
:1004F0001DC0EFEFE7F959016A015E23550FEE08C1
:10050000FE2C87019B01AC019E23990F660B762F71
:10051000CB013BD0CDB7DEB7EAE024C02F923F92AB
:100520004F925F926F927F928F929F92AF92BF9203
:10053000CF92DF92EF92FF920F931F93CF93DF93AF
:10054000CDB7DEB7CA1BDB0B0FB6F894DEBF0FBE0C
:10055000CDBF09942A88398848885F846E847D8459
:100560008C849B84AA84B984C884DF80EE80FD805B
:100570000C811B81AA81B981CE0FD11D0FB6F894D1
:10058000DEBF0FBECDBFED010895DF93CF939F92E5
:10059000A0E49A2E0024D001E001F0011695079501
:1005A000F794E794D794C794B794A79448F4106845
:1005B000A20FB31FC41FD51FE61FF71F081E191E69
:1005C000220F331F441F551F661F771F881F991F57
:1005D0009A9421F79D01AE01BF01C00111249F90A3
:1005E000CF91DF9108955058BB27AA270ED073C131
:1005F0003CD130F041D120F031F49F3F11F41EF492
:1006000031C10EF4E095E7FB27C1E92F86D180F3D5
:10061000BA17620773078407950718F071F49EF5FF
:100620009EC10EF4E0950B2EBA2FA02D0B01B9013F
:1006300090010C01CA01A0011124FF27591B99F058
:10064000593F50F4503E68F11A16F040A22F232F64
:10065000342F4427585FF3CF469537952795A795B4
:10066000F0405395C9F77EF41F16BA0B620B730B5B
:10067000840BBAF09150A1F0FF0FBB1F661F771FCC
:10068000881FC2F70EC0BA0F621F731F841F48F481
:10069000879577956795B795F7959E3F08F0B3CF07
:1006A0009395880F08F09927EE0F979587950895F1
:1006B000EBD0E39521C10CD00EC1DED040F0D5D0F7
:1006C00030F021F45F3F19F0C7C0511149C1CAC0D1
:1006D00024D198F39923C9F35523B1F3951B550BF6
:1006E000BB27AA2762177307840738F09F5F5F4F05
:1006F000220F331F441FAA1FA9F333D00E2E3AF046
:10070000E0E830D091505040E695001CCAF729D05F
:10071000FE2F27D0660F771F881FBB1F26173707AE
:100720004807AB07B0E809F0BB0B802DBF01FF27DE
:1007300093585F4F2AF09E3F510568F08DC010C15D
:100740005F3FECF3983EDCF3869577956795B79518
:10075000F7959F5FC9F7880F911D9695879597F933
:100760000895E1E0660F771F881FBB1F62177307AC
:100770008407BA0720F0621B730B840BBA0BEE1FC1
:1007800088F7E0950895D1D088F09F5790F0B92F61
:100790009927B751A0F0D1F0660F771F881F991FD6
:1007A0001AF0BA95C9F712C0B13081F0D8D0B1E0D3
:1007B0000895D5C0672F782F8827B85F39F0B93FE3
:1007C000CCF3869577956795B395D9F73EF49095D8
:1007D0008095709561957F4F8F4F9F4F0895E89456
:1007E00009C097FB3EF490958095709561957F4F79
:1007F0008F4F9F4F9923A9F0F92F96E9BB27939527
:10080000F695879577956795B795F111F8CFFAF436
:10081000BB0F11F460FF1BC06F5F7F4F8F4F9F4F67
:1008200016C0882311F096E911C0772321F09EE8C5
:10083000872F762F05C0662371F096E8862F70E02B
:1008400060E02AF09A95660F771F881FDAF7880F05
:100850009695879597F9089597F99F6780E870E0D6
:1008600060E008959FEF80EC089500240A94161626
:10087000170618060906089500240A94121613068E
:10088000140605060895EECF50D0E8F3E894E0E0B2
:10089000BB279F57F0F02AED3FE049EC06C0EE0F72
:1008A000BB0F661F771F881F28F0B23A62077307D5
:1008B000840728F0B25A620B730B840BE3959A9568
:1008C00072F7803830F49A95BB0F661F771F881F28
:1008D000D2F79048B8C0092E0394000C11F4882375
:1008E00052F0BB0F40F4BF2B11F460FF04C06F5FE8
:1008F0007F4F8F4F9F4F0895EF93E0FF06C0A2EA0E
:100900002AED3FE049EC5FEB80DEE5DF0F900394DA
:1009100001FC9058EEE1F0E0A2C057FD9058440F62
:10092000551F59F05F3F71F04795880F97FB991F4E
:1009300061F09F3F79F0879508951216130614060B
:10094000551FF2CF4695F1DF08C016161706180698
:10095000991FF1CF86957105610508940895E89473
:10096000BB2766277727CB0197F908950AD0B3CF25
:100970007CDF28F081DF18F0952309F06DCF72CF6E
:10098000EFCFCBDFA8F39923D9F35523C9F3950F04
:1009900050E0551FAA27EE27FF27BB270024089405
:1009A000679520F4E20FF31FB41F0A1E220F331FB6
:1009B000441FAA1F6695A9F7779530F4F30FB41F6B
:1009C0000A1E121E08F46395330F441FAA1F221F2C
:1009D000769599F7879520F4B40F0A1E121E631FAF
:1009E000440FAA1F221F331F8695A9F7862F712D4A
:1009F000602D11249F5750408AF0E1F088234AF07F
:100A0000EE0FFF1FBB1F661F771F881F91505040BE
:100A1000A9F79E3F510570F01FCFA2CF5F3FECF3C7
:100A2000983EDCF3869577956795B795F795E795AA
:100A30009F5FC1F7FE2B880F911D9695879597F9BB
:100A400008959F3F31F0915020F4879577956795F1
:100A5000B795880F911D9695879597F908959F935F
:100A60008F937F936F93FF93EF939B01AC017EDF96
:100A7000EF91FF9105D02F913F914F915F9176CFEC
:100A8000DF93CF931F930F93FF92EF92DF927B013F
:100A90008C01689405C0DA2EEF0173DFFE01E89443
:100AA000A5912591359145915591AEF3EF01ADDDBD
:100AB000FE019701A801DA9479F7DF90EF90FF909B
:0E0AC0000F911F91CF91DF910895F894FFCF11
:00000001FF
